:040000001AEF00F003
:100008000482032A03C0A8FFA684550EA76EAA0E71
:10001800A76EA682110E016E3A0EE82EFED7012EAB
:10002800FCD700D0A694F2920492110040EF00F0A1
:10003800000E926E000E0F015B6F000E896E010EAE
:10004800936E000E5C6F900EF26ED08E000EA96E4D
:10005800010EA66E00D0A8CF03F0817603C080FF02
:10006800A30E026E550EE82EFED7022EFCD700F026
:1000780031EF00F01AEF00F0036A049004920001D7
:040088001CEF00F079
:020000040020DA
:08000000FFFFFFFFFFFFFFFF00
:020000040030CA
:0E00000000285F3CFFD381FF0FC00FE00F40D0
:00000001FF
