:0400000073EF3FF06B
:107EE600000176EF3FF0000E936E000E0F015C6FFF
:107EF600000E0B6E800E0A6E000E956E000E5E6F03
:107F06000AC08AFF0AC001F00BC002F0010E046E1F
:107F1600000E036E9EEC3FF001508C6E520E096E01
:107F26002A0EE82EFED7092EFCD70A4A0B2A83EF23
:107F36003FF000EF00F0000E066E04BEA7EF3FF024
:107F4600A5EF3FF0ADEF3FF0036C041ED8B0042A56
:107F5600010E066E02BEB4EF3FF0B2EF3FF0BAEF8D
:107F66003FF0016C021ED8B0022A010E061A000E5E
:107F7600086E000E076E03500410D8B4C5EF3FF02C
:107F8600C7EF3FF0EFEF3FF0010E056ECFEF3FF08A
:107F9600D89003360436052A04AED4EF3FF0D6EF68
:107FA6003FF0CBEF3FF0D890073608360350015C20
:107FB60004500258D8A0E2EF3FF0E4EF3FF0E9EFBB
:107FC6003FF00350015E0450025A0780D8900432F5
:107FD6000332052ED6EF3FF00650D8B4F5EF3FF04A
:107FE600F7EF3FF0FBEF3FF0076C081ED8B0082A0A
:0A7FF60007C001F008C002F01200FD
:020000040020DA
:08000000FFFFFFFFFFFFFFFF00
:020000040030CA
:0E00000000285F3CFFD381FF0FC00FE00F40D0
:00000001FF
