:04000000ACEF3FF032
:107F58000001AFEF3FF0C3EC3FF0530EE82EFED721
:107F680000F0D9EC3FF0110E016E3A0EE82EFED764
:107F7800012EFCD700D0B5EF3FF000EF00F0000E67
:107F8800926E010E0F015B6F000E946E000E5D6F16
:107F9800010EC26E000EC16E100EC06E0F0EBD6EC9
:107FA800070EBA6E9B0EBB6E1200C282C2B2DFEF22
:107FB8003FF0E1EF3FF0DAEF3FF0C4CFBEFF7F0EB6
:107FC800C364E9EF3FF0EBEF3FF0EEEF3FF0BD8A1F
:107FD800EFEF3FF0BD9AC350020DF3CFC3FF7F0E02
:107FE800C364F9EF3FF0FBEF3FF0FEEF3FF0BD88D1
:087FF800FFEF3FF0BD981200FD
:020000040020DA
:08000000FFFFFFFFFFFFFFFF00
:020000040030CA
:0E00000000285F3CFFD381FF0FC00FE00F40D0
:00000001FF
