:0400000033EF00F0EA
:100008000582F2A20AEF00F00CEF00F02FEF00F0EB
:100018000F0E026E24EF00F08968A30E016E550ED4
:10002800E82EFED7012EFCD700F0000E896EA30E35
:10003800016E550EE82EFED7012EFCD700F0020601
:100048000250D8A42AEF00F02CEF00F010EF00F0D7
:10005800F29231EF00F0042AF2940592110053EF66
:1000680000F0000E926E000E0F015B6F000E896E9D
:100078007F0E936E000E5C6FB00EF26ED08E820E05
:10008800D56E04C089FF210E036E760EE82EFED7CA
:10009800032EFCD700D045EF00F033EF00F0046AE0
:0A00A80005900592000135EF00F00D
:020000040020DA
:08000000FFFFFFFFFFFFFFFF00
:020000040030CA
:0E00000000285F3CFFD381FF0FC00FE00F40D0
:00000001FF
