:0400000055EF3FF089
:107EAA0000017EEF3FF0000E926E010E0F015B6F34
:107EBA00000E936E000E5C6F010EC26E000EC16E54
:107ECA00900EC06E1200C282C2B26EEF3FF070EF27
:107EDA003FF069EF3FF0C450046E036AC3500324B5
:107EEA00056E000E0420066E05C001F006C002F001
:107EFA00120058EC3FF0530EE82EFED700F068EC63
:107F0A003FF001C007F002C008F0000E0A6E040E2E
:107F1A00096E9EEC3FF007508A6E110E0F6E3A0EF4
:107F2A00E82EFED70F2EFCD700D084EF3FF000EFEB
:107F3A0000F0000E0C6E0ABEA7EF3FF0A5EF3FF06F
:107F4A00ADEF3FF0096C0A1ED8B00A2A010E0C6E7A
:107F5A0008BEB4EF3FF0B2EF3FF0BAEF3FF0076C64
:107F6A00081ED8B0082A010E0C1A000E0E6E000E5A
:107F7A000D6E09500A10D8B4C5EF3FF0C7EF3FF0B5
:107F8A00EFEF3FF0010E0B6ECFEF3FF0D8900936BE
:107F9A000A360B2A0AAED4EF3FF0D6EF3FF0CBEF0A
:107FAA003FF0D8900D360E360950075C0A50085833
:107FBA00D8A0E2EF3FF0E4EF3FF0E9EF3FF00950DD
:107FCA00075E0A50085A0D80D8900A3209320B2EE1
:107FDA00D6EF3FF00C50D8B4F5EF3FF0F7EF3FF093
:107FEA00FBEF3FF00D6C0E1ED8B00E2A0DC007F045
:067FFA000EC008F01200A9
:020000040020DA
:08000000FFFFFFFFFFFFFFFF00
:020000040030CA
:0E00000000285F3CFFD381FF0FC00FE00F40D0
:00000001FF
