:0400000028EF00F0F5
:1000080004820F0E026E1DEF00F08968A30E016EC8
:10001800550EE82EFED7012EFCD700F0000E896E93
:10002800A30E016E550EE82EFED7012EFCD700F068
:1000380002060250D8A423EF00F025EF00F009EFE4
:1000480000F0F2920492110044EF00F0000E926E5C
:10005800000E0F015B6F000E896E9368000E5C6FD7
:10006800900EF26ED08E8970A30E036E550EE82E98
:10007800FED7032EFCD700F037EF00F028EF00F092
:0A0088000490049200012AEF00F03A
:020000040020DA
:08000000FFFFFFFFFFFFFFFF00
:020000040030CA
:0E00000000285F3CFFD381FF0FC00FE00F40D0
:00000001FF
