:0400000096EF05F082
:100800000020437572736F206465204D264D2000D3
:0D08100048656C6C6F20576F726C640000BF
:10081E0036C0D9FF37C0DAFFDECFF6FFDDCFF7FFE8
:10082E000800F550250AD8A41FEF04F021EF04F0BC
:10083E0068EF04F036C0D9FF37C0DAFFDE2A000EAB
:10084E00DD22000E246E000E236E23C027F024C07E
:10085E0028F02568266836C0D9FF37C0DAFFDECF0C
:10086E00F6FFDDCFF7FF0800F550250AD8A442EFBA
:10087E0004F044EF04F05BEF04F036C0D9FF37C04C
:10088E00DAFFDE2A000EDD22000E2C6E250E2B6EF8
:10089E0034C02DF035C02EF084EC04F0000E356E11
:1008AE00010E346E83EF04F036C0D9FF37C0DAFF85
:1008BE00DE2A000EDD22000E356E000E346E83EF42
:1008CE0004F036C0D9FF37C0DAFFDECFF6FFDDCF3A
:1008DE00F7FF0800F5502B6E2C6A34C02DF035C092
:1008EE002EF084EC04F036C0D9FF37C0DAFFDE2AD2
:1008FE00000EDD2255EF04F012002D502E10D8B44C
:10090E008BEF04F08DEF04F096EF04F02D502E10C7
:10091E00D8A494EF04F096EF04F09BEF04F02B5064
:10092E0051EC05F0CEEF04F020EE04F02D50D92658
:10093E002E50DA22DE50DE10D8B4A8EF04F0AAEF63
:10094E0004F0C5EF04F020EE04F02D50D9262E5001
:10095E00DA2210EE02F02D50E1262E50E222DE5069
:10096E00E65CE650800A336EDE50800A3358D8B00B
:10097E00C3EF04F0C5EF04F0CEEF04F020EE02F06A
:10098E002D50D9262E50DA22DE2A000EDD2212003C
:10099E000A0E2B6EBC0EE82EFED72B2EFCD700D0E7
:1009AE00020E6BEC05F0530EE82EFED700F0280E6B
:1009BE006BEC05F0530EE82EFED700F02C0E6BEC10
:1009CE0005F0530EE82EFED700F00C0E6BEC05F082
:1009DE00530EE82EFED700F0060E6BEC05F0530E0C
:1009EE00E82EFED700F0800E6BEC05F0530EE82ECD
:1009FE00FED700F012003CC040F03DC041F0000EAA
:100A0E00226E000E216E1EEF05F03AC034F03BC090
:100A1E0035F0400E366E000E376E3EC038F03FC0D9
:100A2E0039F00FEC04F0345021263550222240C00C
:100A3E00F6FF41C0F7FF0800F5500009D8A42AEFD1
:100A4E0005F02CEF05F00CEF05F021C03AF022C0B6
:100A5E003BF01200A3EC05F0CFEC04F0010E426E59
:100A6E00080E436E83EC05F0C20E6BEC05F0100E13
:100A7E00426E080E436E83EC05F08970A30E466E2F
:100A8E00550EE82EFED7462EFCD700F044EF05F0AB
:100A9E0000EF00F0296E2950F00B2A6E2A5005093E
:100AAE008C6E00D02A5001098C6E530EE82EFED7A4
:100ABE0000F02938F00B2A6E2A5005098C6E00D0F2
:100ACE002A5001098C6E1200296E2950F00B2A6EE5
:100ADE002A5004098C6E00D02AC08CFF530EE82ECB
:100AEE00FED700F02938F00B2A6E2A5004098C6EBE
:100AFE0000D02AC08CFF1200440E446E000E456ECC
:100B0E00000E3A6E000E3B6E42C03CF043C03DF00C
:100B1E00440E3E6E000E3F6E02EC05F0120000EE2B
:100B2E0001F0280EEE6AE806FDE1000EF86E080EE2
:100B3E00F76E000131EF05F0000E926E000E956E0D
:100B4E00000E0F015E6F000E5B6F000E896E1200BD
:020000040020DA
:08000000FFFFFFFFFFFFFFFF00
:020000040030CA
:0E00000000285F3CFFD381FF0FC00FE00F40D0
:00000001FF
